:1000000041C065C064C063C062C061C060C05FC001
:100010005EC063C45CC05BC05AC059C058C057C002
:1000200056C0A5C454C000000000370034003100A1
:1000300000000000000000000004050700000000B0
:1000400000000000000000010204081020408001B0
:100050000204081020010204081020408040000023
:1000600000003800350032000404040404040404D1
:10007000020202020202030303030303020203005B
:10008000C605E50811241FBECFE5D4E0DEBFCDBF15
:1000900011E0A0E6B0E0E8E9F4E102C005900D92BD
:1000A000A034B107D9F722E0A0E4B1E001C01D926D
:1000B000A435B207E1F710E0C1E4D0E003C0219716
:1000C000FE01B3D8C034D107D1F7D3D5D9C998CF61
:1000D0008F929F92AF92BF92CF92DF92EF92FF9258
:1000E000CF9320913C0230913D02232B09F449C06B
:1000F0004C01AA24BB24C82DC72ED82EE92EFF24DC
:10010000BC2DA62F20914202222361F0829E400145
:100110001124C92D2C9D60011124BD2D269FA00105
:100120001124A52FE09148024091430250914402CE
:1001300030914502E31799F0692F7727882799278F
:10014000222349F030E0269F7001279FF00C369F54
:10015000F00C11246F2DE40FF52FF11D6083E09159
:100160004502E40FF52FF11DC083E0914602E40F34
:10017000F52FF11DB08380914702480F511DFA0100
:10018000A083CF91FF90EF90DF90CF90BF90AF9082
:100190009F908F90089590E0FC01E05DFF4F3491B7
:1001A000FC01E95BFF4F2491FC01E859FF4FE4910A
:1001B000EE23E1F0332349F03530C9F03730D1F088
:1001C000343019F48FB58F778FBDF0E0EE0FFF1F3D
:1001D000E25AFF4FA591B4918FB7F89461110EC008
:1001E0009C91E22FE095E923EC938FBF08958FB5A2
:1001F0008F7DEACF85B58F7D85BDE7CFEC91E22B72
:10020000F3CFCF93DF9390E0FC01E95BFF4F2491A4
:1002100088599F4FFC0184918823D1F090E0880F8A
:10022000991FFC01EA5DFF4FA591B491FC01E25AD0
:10023000FF4FC591D49161110EC09FB7F8948C9176
:10024000E22FE0958E238C932881E223E8839FBFE1
:10025000DF91CF9108958FB7F894EC91E22BEC9356
:100260008FBFF6CF3FB7F89480912A0290912B026E
:10027000A0912C02B0912D0222B708B600FE05C055
:100280002F3F19F00196A11DB11D3FBFBA2FA92F15
:10029000982F8827BC01CD01620F711D811D911D12
:1002A00043E0660F771F881F991F4A95D1F708957D
:1002B0000F931F93CF93DF93CDB7DEB729970FB678
:1002C000F894DEBF0FBECDBF8091430290914402EF
:1002D000892B09F4AAC0C6DF0091490210914A0295
:1002E00020914B0230914C026017710782079307EF
:1002F00040F46093490270934A0280934B029093BA
:100300004C020091490210914A0220914B02309117
:100310004C02601B710B820B930B6C327140810598
:100320009105C8F2F89480913E0290913F029A8321
:100330008983A0914302B0914402FD0131968C91D2
:10034000898780913A02A0914D02B0914E02882394
:1003500009F42DC11B82A233B10509F071C092B31B
:1003600080914F02982B988792B3809589238F8331
:100370008F818C83898587FF02C088858C8358850F
:100380006F8149853C812B8189819A8152BB262FBF
:1003900032BB00C046FD252F62BB00C052BB362FCA
:1003A00022BB00C045FD352F62BB00C052BB262FCB
:1003B00032BB00C044FD252F62BB00C052BB362FAC
:1003C00022BB00C043FD352F62BB00C052BB262FAD
:1003D00032BB00C042FD252F62BB00C052BB362F8E
:1003E00022BB00C041FD352F62BB00C052BB262F8F
:1003F00032BB00C040FD252F62BB019752BB362F98
:1004000022BB419147FD352F62BB01F649873C83F2
:100410002B839A838983789425DF609349027093B4
:100420004A0280934B0290934C0229960FB6F8949F
:10043000DEBF0FBECDBFDF91CF911F910F91089509
:10044000A833B10509F058C098B380914F02982B9A
:10045000988798B3809589238F838F818C83898532
:1004600087FF02C088858C8358856F8149853C81D0
:100470002B8189819A8158BB262F38BB00C046FD4D
:10048000252F68BB00C058BB362F28BB00C045FDD8
:10049000352F68BB00C058BB262F38BB00C044FDB9
:1004A000252F68BB00C058BB362F28BB00C043FDBA
:1004B000352F68BB00C058BB262F38BB00C042FD9B
:1004C000252F68BB00C058BB362F28BB00C041FD9C
:1004D000352F68BB00C058BB262F38BB00C040FD7D
:1004E000252F68BB019758BB362F28BB419147FD8C
:1004F000352F68BB01F68ACFD59709F08CCF95B31D
:1005000080914F02982B988795B3809589238F838C
:100510008F818C83898587FF02C088858C8358856D
:100520006F8149853C812B8189819A8155BB262F1A
:1005300035BB00C046FD252F65BB00C055BB362F1F
:1005400025BB00C045FD352F65BB00C055BB262F20
:1005500035BB00C044FD252F65BB00C055BB362F01
:1005600025BB00C043FD352F65BB00C055BB262F02
:1005700035BB00C042FD252F65BB00C055BB362FE3
:1005800025BB00C041FD352F65BB00C055BB262FE4
:1005900035BB00C040FD252F65BB019755BB362FED
:1005A00025BB419147FD352F65BB01F62FCF9C91AF
:1005B00080914F02982B98879C91809589238F83F7
:1005C0008F818E8388E08D8358856F8149853D8139
:1005D0002E8189819A815C9347FD252F2C93262FAC
:1005E0003A9531F0441F6C9300C000C000C0F3CFB7
:1005F0006C93000038E04191019769F7B0934E0287
:10060000A0934D0249873D832E8303CF8F929F9203
:10061000AF92BF92CF92DF92EF92FF924B015C01BB
:1006200021DE6B017C011EDE6C197D098E099F099C
:10063000683E734081059105B0F321E0821A91086C
:10064000A108B10888EEC80E83E0D81EE11CF11C99
:1006500081149104A104B10431F7FF90EF90DF9071
:10066000CF90BF90AF909F908F900895E091B90187
:10067000F091BA01309729F01092B6011092B501AD
:1006800009940895CF93DF93AC01E091BB01F09101
:10069000BC013097F1F09091B8018091B7019817A3
:1006A000C0F090E0292F30E02617370754F4D90125
:1006B000A95BBE4F240F351FE90128812C939F5F52
:1006C000F1CF1092B8016093B701CB01DF91CF91C8
:1006D0000994DF91CF91089585ED86BF06B604FC9D
:1006E000FDCF1092B401089520918701260F332782
:1006F000331F21323105ECF42091B401FC0190E06C
:1007000080E0243069F082E00895A0918701219172
:10071000AC0149595E4FA40FB52FB11D2C93019622
:10072000861798F380918701680F6093870180E0B6
:10073000089581E008950895E091B8018091B7018E
:10074000E81730F4F0E0E95BFE4F808190E0089517
:100750008FEF9FEF08959091B8018091B7012FEF2F
:100760003FEF981748F4E92FF0E0E95BFE4F208156
:1007700030E09F5F9093B801C90108958091B7015F
:100780009091B801891B990B0895CF93DF93CB010A
:10079000EA01642FA9DFCE01DF91CF910895CF93B5
:1007A000DF931F92CDB7DEB7698361E0CE0101967A
:1007B0009BDF81E090E00F90DF91CF91089590E072
:1007C00080E00895CF93DF9320914601211127C047
:1007D000EC018EE292E0BFDF809346018032F9F4B3
:1007E0002297E9F48EE292E0B6DF21E0892B09F44A
:1007F00020E02093D201109246011092D301109272
:10080000D4011092D5011092D6011092BD01109220
:10081000D0011092D1011092BF011092BE01DF9160
:10082000CF9108950F931F93CF93DF93C09146010B
:10083000CC2379F180EF8C0F8730E8F4C051DD0BC9
:1008400001E017E0809124028027FE01189FE00D4F
:10085000F11D1124EA5EFD4F60818EE292E09FDF80
:100860002196C730D10571F710924601DF91CF91E3
:100870001F910F9108956091D201C03231F061E073
:10088000CE3F19F0CD3F81F761E18EE292E087DF44
:10089000EBCF8091D2018111E9CF8091BF018823F4
:1008A00029F38150990B2091BD01880F991F880F62
:1008B000991F8A599F4F820F911DFC0160818EE222
:1008C00092E06DDF8091D001811104C01092BD01D2
:1008D0001092D1011092BF01C9CF1F920F920FB693
:1008E0000F9211242F933F938F939F93AF93BF93B6
:1008F0008091260290912702A0912802B0912902AE
:100900003091250226E0230F2D3768F129E8230FC7
:100910000396A11DB11D209325028093260290937A
:100920002702A0932802B093290280912A02909175
:100930002B02A0912C02B0912D020196A11DB11D98
:1009400080932A0290932B02A0932C02B0932D0245
:10095000BF91AF919F918F913F912F910F900FBEBB
:100960000F901F9018950296A11DB11DD4CF1F9214
:100970000F920FB60F9211242F933F934F935F93D3
:100980006F937F938F939F93AF93BF93EF93FF9357
:1009900081B1887F803609F449C0E8F5883209F4CE
:1009A000A2C018F5803109F498C0B8F4882309F47E
:1009B000EAC0883009F491C0FF91EF91BF91AF91E7
:1009C0009F918F917F916F915F914F913F912F9167
:1009D0000F900FBE0F901F901895883109F483C0B7
:1009E000803251F78093AA0114C0803409F493C077
:1009F00040F48033B9F38833F9F68093AA0185EC8B
:100A0000A3C0803509F47EC0883509F48CC08834D1
:100A100099F662DED1CF883909F483C030F5883782
:100A200029F050F4883611F0803731F683E0809356
:100A3000B4011092A90154C0883809F472C08039F9
:100A400019F0803809F0B8CF8091A901803208F000
:100A500068C0E091A90181E08E0F8093A90183B164
:100A6000F0E0E757FE4F80833BC0803B39F0E0F475
:100A7000803A09F46DC0883A09F09ECF84E08093F3
:100A8000B4011092880110928701E091B001F091B9
:100A9000B10109958091870181110FC081E0809398
:100AA00087011092670109C0803C09F4A8CF883CF7
:100AB00009F4A5CF883B09F07FCFE091880181E060
:100AC0008E0F80938801F0E0E959FE4F808183B951
:100AD000909188018091870122C08091AD0183B9F6
:100AE00085EC86BF69CF9091AC018091AB019817DE
:100AF00018F5E091AC0181E08E0F8093AC01F0E03D
:100B00008081EDCFE091AC0181E08E0F8093AC014C
:100B100083B1F0E080839091AC018091AB01981794
:100B2000F8F285E8DECFE091AC0181E08E0F809392
:100B3000AC0183B1F0E080838091B301811169CF72
:100B400081E08093B20184EA86BF1092B40134CF71
:100B500085EC86BF1092B4018091A901803230F4F7
:100B6000E091A901F0E0E757FE4F10826091A901E2
:100B700070E0E091AE01F091AF0189E891E0099554
:100B80001092A90119CF1092AA0143CF10923102FD
:100B90001092300288EE93E0A0E0B0E08093320241
:100BA00090933302A0933402B093350282E391E034
:100BB00090932F0280932E0210923B0210924202D9
:100BC0001092490210924A0210924B0210924C026B
:100BD00081E080934802809345021092460292E0A1
:100BE0009093470280933A0283E090E090933F0213
:100BF00080933E0220D39093440280934302009757
:100C000079F123E0FC0111922A95E9F781E090E067
:100C100090933D0280933C028DE090E090934102DE
:100C20008093400280913B02882331F061E08DE0A7
:100C3000E8DA60E08DE0AFDAE5E7F0E0E491F0E0DB
:100C4000EE0FFF1FE25AFF4F8591949190934E0251
:100C500080934D02E4E5F0E0E491E0934F020895C3
:100C600010923F0210923E0210923D0210923C02FE
:100C7000D3CFCF93DF93CDB7DEB728970FB6F894D5
:100C8000DEBF0FBECDBF789483B7836083BF89B7C3
:100C9000816089BF82E08EBD8EB581608EBD8FB5CB
:100CA00081608FBD85B5846085BD85B5806485BD57
:100CB00086E886B91AB861E081E1A3DA61E080E1F3
:100CC000A0DA61E08FE09DDA61E08EE09ADA61E01F
:100CD0008EE061DA60E08FE05EDA60E080E15BDAAE
:100CE00060E081E158DA17BA8FEF88BB11BA82BB96
:100CF0001092C0011092C1011092C2011092C30162
:100D000080E090E0A3E0B0E08093C4019093C5013F
:100D1000A093C601B093C70180E093E0A0E0B0E0EB
:100D20008093C8019093C901A093CA01B093CB01ED
:100D300083E090E0A0E0B0E08093CC019093CD01FF
:100D4000A093CE01B093CF018091400290914102D7
:100D500097FD76C061E055DA60E0809140021BDAD1
:100D600081E080933B021092B8011092B70110927B
:100D7000B6011092B5011092B40181E08093B301E5
:100D80001092B20161E082E106DA61E083E103DA08
:100D90000898099880E280B985E486BF86E393E0ED
:100DA0009093B1018093B00182E493E09093AF01FE
:100DB0008093AE018EEB82B982E194E09093BA0108
:100DC0008093B90182EE93E09093BC018093BB01C4
:100DD00061E081E1E0D961E080E1DDD961E08FE0AF
:100DE000DAD960E08EE0D7D962E070E080E090E090
:100DF0000DDC04EC11E01A830983A981BA81CD903E
:100E0000DD90ED90FD90BA83A98310E000E00F5FC4
:100E10001F4F04301105B9F0C701B60159D948DA9E
:100E200064E170E080E090E0F1DB60E070E0CB0135
:100E30004FD93EDA64E170E080E090E0E7DBE7CF95
:100E400010923B0290CF09811A81005D1140A9F6F2
:100E500060E070E0CB013CD92BDA17E0B12EA09016
:100E600024022A2C312CAB9CF0011124EA5EFD4FA8
:100E7000DF014B2C1D924A94E9F746B34095407D23
:100E8000C090D301D090D401E090D501F090D6016C
:100E90005090D0015C828090D2016090D1016B8231
:100EA0000AE211E01A830983E7EDF1E083E090E0C4
:100EB00070E0582FA981BA8113961C91142360E029
:100EC00021F0DC01AA5DBE4F6C91762BA1E01111DF
:100ED00001C0A0E064AD65AFB3ADAB1729F0A3AF1F
:100EE000C2AAD3AAE4AAF5AAB1E0611101C0B0E098
:100EF000AB1721F0C6A6D7A6E0AAF1AA112331F0BC
:100F0000611102C0B1E0B4AFB0E004C014AEB1E012
:100F10006130D1F7A2ADA33009F416AEC2A6D3A6B4
:100F2000E4A6F5A6B130E9F046A857A860AC71ACCC
:100F3000970186010419150926093709053111059C
:100F40002105310560F0B4ADB11109C0B6ADBB23C8
:100F500031F0611103C0B3E0AA2351F016AEB0E046
:100F600007C066AD6F5F66AFC6AAD7AAE0AEF1AEA6
:100F7000B2AF65AD662339F064AD611104C088205D
:100F800059F050E00CC0B33061F466AD623049F402
:100F90005B8301E00C8305C01B81511791F35B83D8
:100FA0001C8229813A81215031093A83298375971E
:100FB000019709F07ECF4B804092D1015C80509226
:100FC000D001442029F0E42DF0E0EA5DFE4F70816D
:100FD000B29CF001B39CF00D1124EA5EFD4F7683C4
:100FE000882009F4DBC06C80EB81611001C0E0E077
:100FF00004E0E09FF0011124E054FE4F6081718114
:101000008281938165D8912C10E000E0B29CC001F0
:10101000B39C900D11249C012A5E3D4F390161E083
:101020000115110509F460E081E1B5D861E00130F6
:10103000110509F460E080E1AED861E002301105ED
:1010400009F460E08FE0A7D861E00330110509F4EE
:1010500060E08EE0A0D862E070E080E090E0D6DA58
:1010600080B346B3542F482F409550955F706091E0
:10107000BE017091BF0190E080E055245394590C5B
:101080009A01082E02C0369527950A94E2F720FFB0
:101090001CC0292D280FE22FF0E0A3E0F595E7957D
:1010A000AA95E1F7E60DF71D2770A1E0B0E002C0B8
:1010B000AA0FBB1F2A95E2F79D013081232B2083C5
:1010C000611103C070E0652D680F01968C309105A9
:1010D000B9F66093BE017093BF010F5F1F4FBCE074
:1010E0009B0EE0E39E129BCF711125C0662319F180
:1010F0002FEF260F822F90E033E0959587953A9554
:10110000E1F7B29CF001B39CF00D1124EA5EFD4FB3
:10111000E80FF91F808190E0277002C096958795AF
:101120002A95E2F780FD07C06093BF014B80409293
:10113000BD011092BE018091BE01882329F062E0BA
:1011400072E082E090E0C4D7B3D8811009C08091EA
:10115000BF01882329F05C80511002C01092D10198
:1011600066246394A624A09224020FEFC01AD00A2A
:10117000E00AF00AC092D301D092D401E092D501E6
:10118000F092D60161E070E080E090E03FDA20E08C
:1011900030E0232B09F463CE33D761CE1C811111CB
:1011A0000BC0C701B60126E030E040E050E01BD0A4
:1011B00090E080E020FD03C04B80842D90E0880FFC
:1011C000991F880F991FFC0117CF809143029091BE
:1011D0004402CDD0809140029091410297FD02C01F
:1011E00060E00FC80895A1E21A2EAA1BBB1BFD01E7
:1011F0000DC0AA1FBB1FEE1FFF1FA217B307E407F6
:10120000F50720F0A21BB30BE40BF50B661F771F4D
:10121000881F991F1A9469F760957095809590952D
:101220009B01AC01BD01CF010895EE0FFF1F05909A
:10123000F491E02D09940F931F93CF93DF938230A5
:10124000910510F482E090E0E0915202F091530297
:1012500030E020E0B0E0A0E0309799F421153105AE
:1012600009F44AC0281B390B24303105D8F58A818E
:101270009B816115710589F1FB0193838283FE01D6
:1012800011C0408151810281138148175907E0F054
:101290004817590799F4109761F012960C9312971A
:1012A00013961C933296CF01DF91CF911F910F912E
:1012B00008950093520210935302F4CF2115310583
:1012C00051F04217530738F0A901DB019A01BD0123
:1012D000DF01F801C1CFEF01F9CF90935302809362
:1012E0005202CDCFFE01E20FF31F81939193225062
:1012F000310939832883D7CF209150023091510290
:10130000232B41F42091620030916300309351020D
:101310002093500220916000309161002115310529
:1013200041F42DB73EB74091640050916500241BF5
:10133000350BE0915002F0915102E217F307A0F44F
:101340002E1B3F0B2817390778F0AC014E5F5F4F1B
:101350002417350748F04E0F5F1F509351024093FA
:101360005002819391939FCFF0E0E0E09CCFCF9328
:10137000DF930097E9F0FC01329713821282A0916B
:101380005202B0915302ED0130E020E01097A1F439
:1013900020813181820F931F2091500230915102A0
:1013A0002817390709F061C0F0935102E093500209
:1013B000DF91CF910895EA01CE17DF07E8F54A8162
:1013C0005B819E0141155105B1F7E901FB83EA8379
:1013D00049915991C40FD51FEC17FD0761F4808125
:1013E00091810296840F951FE901998388838281F8
:1013F00093819B838A83F0E0E0E012968D919C912B
:1014000013970097B9F52D913C911197CD01029654
:10141000820F931F209150023091510228173907F3
:1014200039F6309751F51092530210925202B09350
:101430005102A0935002BCCFD383C283408151811B
:10144000840F951FC817D90761F44E5F5F4F8881DD
:101450009981480F591F518340838A819B819383CF
:1014600082832115310509F0B0CFF0935302E09348
:1014700052029ECFFD01DC01C0CF13821282D7CF72
:1014800010E0C1E4D0E003C0FE01CFDE2196C234FB
:08149000D107D1F7F894FFCF5A
:101498000000540280001B1B1B8031312181323235
:1014A80040823333238334342484353525853636D6
:1014B8005E863737268738382A8839392889303080
:1014C800298A087F088B0909098C71517B8D775708
:1014D8007D8E65455B8F72525D9074542F9179595A
:1014E8005C9275557C9369497E946F4F279570502F
:1014F800229600000000B4B4B498B5B5B59961411E
:101508003B9A73533A9B6444609C66462B9D67479D
:101518002D9E68485F9F6A4A3DA06B4B3FA16C4C6B
:1015280000A20D0D0DA3B6B6B6A4B7B7B7A57A5AE3
:1015380000A6785800A7634300A8765600A962421F
:1015480000AA6E4E00AB6D4D00AC2C2C3CAD2E2E7F
:101558003EAE202020AF00010204001080400000B1
:101568000000CF03C503DF039B03BE03AB039C034B
:00000001FF
